{
  "_format": "hh3-artifact-1",
  "contractName": "DAOProposal",
  "sourceName": "contracts/DAOProposal.sol",
  "abi": [
    {
      "inputs": [
        {
          "internalType": "string",
          "name": "_description",
          "type": "string"
        }
      ],
      "name": "createProposal",
      "outputs": [],
      "stateMutability": "nonpayable",
      "type": "function"
    },
    {
      "inputs": [],
      "name": "proposalCount",
      "outputs": [
        {
          "internalType": "uint256",
          "name": "",
          "type": "uint256"
        }
      ],
      "stateMutability": "view",
      "type": "function"
    },
    {
      "inputs": [
        {
          "internalType": "uint256",
          "name": "",
          "type": "uint256"
        }
      ],
      "name": "proposals",
      "outputs": [
        {
          "internalType": "uint256",
          "name": "id",
          "type": "uint256"
        },
        {
          "internalType": "string",
          "name": "description",
          "type": "string"
        },
        {
          "internalType": "uint256",
          "name": "voteCount",
          "type": "uint256"
        }
      ],
      "stateMutability": "view",
      "type": "function"
    },
    {
      "inputs": [
        {
          "internalType": "uint256",
          "name": "_proposalId",
          "type": "uint256"
        }
      ],
      "name": "vote",
      "outputs": [],
      "stateMutability": "nonpayable",
      "type": "function"
    }
  ],
  "bytecode": "0x6080604052348015600e575f5ffd5b506104a38061001c5f395ff3fe608060405234801561000f575f5ffd5b506004361061004a575f3560e01c80630121b93f1461004e578063013cf08b1461006357806349c2a1a61461008e578063da35c664146100a1575b5f5ffd5b61006161005c3660046101e9565b6100b7565b005b6100766100713660046101e9565b6100db565b60405161008593929190610200565b60405180910390f35b61006161009c366004610257565b610182565b6100a95f5481565b604051908152602001610085565b5f8181526001602052604081206002018054916100d38361030a565b919050555050565b600160208190525f9182526040909120805491810180546100fb9061032e565b80601f01602080910402602001604051908101604052809291908181526020018280546101279061032e565b80156101725780601f1061014957610100808354040283529160200191610172565b820191905f5260205f20905b81548152906001019060200180831161015557829003601f168201915b5050505050908060020154905083565b5f805490806101908361030a565b9091555050604080516060810182525f805480835260208084018681528486018490529183526001908190529390912082518155905191929091908201906101d890826103b2565b506040820151816002015590505050565b5f602082840312156101f9575f5ffd5b5035919050565b838152606060208201525f83518060608401528060208601608085015e5f608082850101526080601f19601f830116840101915050826040830152949350505050565b634e487b7160e01b5f52604160045260245ffd5b5f60208284031215610267575f5ffd5b813567ffffffffffffffff81111561027d575f5ffd5b8201601f8101841361028d575f5ffd5b803567ffffffffffffffff8111156102a7576102a7610243565b604051601f8201601f19908116603f0116810167ffffffffffffffff811182821017156102d6576102d6610243565b6040528181528282016020018610156102ed575f5ffd5b816020840160208301375f91810160200191909152949350505050565b5f6001820161032757634e487b7160e01b5f52601160045260245ffd5b5060010190565b600181811c9082168061034257607f821691505b60208210810361036057634e487b7160e01b5f52602260045260245ffd5b50919050565b601f8211156103ad57805f5260205f20601f840160051c8101602085101561038b5750805b601f840160051c820191505b818110156103aa575f8155600101610397565b50505b505050565b815167ffffffffffffffff8111156103cc576103cc610243565b6103e0816103da845461032e565b84610366565b6020601f821160018114610412575f83156103fb5750848201515b5f19600385901b1c1916600184901b1784556103aa565b5f84815260208120601f198516915b828110156104415787850151825560209485019460019092019101610421565b508482101561045e57868401515f19600387901b60f8161c191681555b50505050600190811b0190555056fea2646970667358221220c3296ba8b691c00843f0d9274f6808685ba0dd1ffb8d8b2bfacaa920acdff9f864736f6c634300081c0033",
  "linkReferences": {},
  "deployedLinkReferences": {},
  "immutableReferences": {},
  "inputSourceName": "project/contracts/DAOProposal.sol",
  "buildInfoId": "solc-0_8_28-3143eb99c523bf84a1f20bfcd39f46b2ddf5ec83"
}